:020000040800F2
:1000000000000220858B0008E9160008F1160008A0
:10001000F3160008F5160008F716000800000000A7
:100020000000000000000000000000000177000850
:10003000F916000800000000A17700088F72000880
:10004000D58B0008D58B0008D58B0008D58B000810
:10005000D58B0008D58B0008FB160008D58B00084F
:10006000D58B0008051700080F170008D58B00086E
:100070001917000829170008D58B00083917000840
:10008000D58B0008D58B0008D58B0008D58B0008D0
:10009000D58B0008D58B0008D58B000849170008C0
:1000A000D58B0008D58B0008D58B0008D58B0008B0
:1000B000D58B0008D58B0008D58B0008D58B0008A0
:1000C000D58B0008D58B0008D58B0008D58B000890
:1000D000D58B000855170008D58B0008D58B000874
:1000E000D58B0008D58B0008D58B0008D58B000870
:1000F000D58B000865170008D58B00087D17000810
:10010000D58B0008D58B0008D58B0008D58B00084F
:10011000D58B0008D58B0008D58B0008D58B00083F
:100120008D1700089D170008AD170008BD170008BF
:10013000D58B0008D58B0008D58B0008D58B00081F
:10014000D58B0008D58B0008D58B0008CD1700088B
:10015000DD170008ED170008FD1700080D1800084E
:10016000D58B0008D58B0008D58B0008D58B0008EF
:10017000D58B0008D58B0008D58B00080000000047
:08018000D58B0008D58B0008A7
:1001900053B94AB9002908BF00281CBF4FF0FF31EE
:1001A0004FF0FF3000F00CB8ADF1080C6DE904CE53
:1001B00008F0FAFDDDF804E0DDE9022304B0704741
:1001C000704700BF0348044B834202D0034B03B186
:1001D000184770474C0100204C010020000000002F
:1001E0000548064B1B1AD90F01EBA301491002D099
:1001F000034B03B1184770474C0100204C0100200D
:100200000000000010B5064C237843B9FFF7DAFF71
:10021000044B13B10448AFF300800123237010BDD9
:1002200050010020000000006490000808B5054B54
:100230001BB105490548AFF30080BDE80840FFF752
:10024000CFBF00BF000000005401002064900008F0
:1002500008B50268034B9A4200D008BD04F02AF9A1
:10026000FBE700BF0020004072B6FEE700B595B086
:100270003022002108A808F0AEFC00230393049369
:100280000593069307930193224A116C41F0805124
:100290001164126C02F080520192019A02931E4B7B
:1002A0001A6842F480421A601B6803F48043029388
:1002B000029B092308934FF48033099301230D9384
:1002C00002230E934FF480020F9206221092A8226E
:1002D000119212930723139308A803F03FF9A8B9CA
:1002E0000F23039302230493002305934FF4A05399
:1002F00006934FF480530793052103A803F084FB72
:1003000030B903F027FB15B05DF804FBFFF7ACFF35
:10031000FFF7AAFF003802400070004008B504F063
:10032000AFF8FFF7A3FF00F029F800F0AFFA00F0F4
:10033000BFF900F0DFF900F081FA00F0CFFB01F027
:1003400027F801F05BF800F02DFC00F0EFFB00F067
:1003500023FE00F0E3FF00F01DF900F003FF00F0C2
:1003600057FF01F02FF800F005FB00F0A5FE06F0A6
:100370009BFF00F0FFF806F0A9FFFEE72DE9F04330
:100380008FB0002409940A940B940C940D9400945B
:100390006D4B1A6B42F002021A631A6B02F00202F2
:1003A0000092009A01941A6B42F040021A631A6B91
:1003B00002F040020192019A02941A6B42F001028B
:1003C0001A631A6B02F001020292029A03941A6BEA
:1003D00042F008021A631A6B02F008020392039AB1
:1003E00004941A6B42F004021A631A6B02F00402BE
:1003F0000492049A05941A6B42F480721A631A6B81
:1004000002F480720592059A06941A6B42F08002FB
:100410001A631A6B02F080020692069A07941A6B0E
:1004200042F020021A631A6B02F020020792079A28
:1004300008941A6B42F010021A631B6B03F010034E
:100440000893089B414F01224021384603F082FD6A
:10045000DFF8049122464FF4E051484603F07AFD5C
:100460003B4E01221021304603F074FDDFF8EC8092
:1004700001221146404603F06DFD402309930125FA
:100480000A950B950C9509A9384603F06DFC4FF4BD
:10049000E05309930A950B940C9409A9484603F07C
:1004A00063FC082309934FF40419CDF828900B95A9
:1004B00009A9384603F058FC0995CDF828900B950A
:1004C00009A9304603F050FC102309930A950B95B7
:1004D00003270C9709A9304603F046FC3023099303
:1004E0004FF488130A930B9409A91A4803F03CFCB3
:1004F00009950A950B950C9709A9404603F034FC21
:1005000022460521062003F0A7FF062003F0B4FFD2
:1005100022460521092003F09FFF092003F0ACFFCC
:10052000224605210A2003F097FF0A2003F0A4FFCA
:1005300022460521172003F08FFF172003F09CFFB0
:100540000FB0BDE8F08300BF003802400018024041
:100550000000024000080240001C0240000402406B
:1005600008B501F0CFF9012006F02BFFFBE770473B
:100570007047000008B5044A0021044806F0C2FE96
:10058000034B186008BD00BFF0900008610500082B
:100590006C01002000B585B0002300930193029305
:1005A00003931548154A02604FF48032426083601D
:1005B00003610122027680F82030C3621049816213
:1005C000C360C26180F83020426104F033F868B93A
:1005D00008230093012301930723029369460648E9
:1005E00004F054F828B905B05DF804FBFFF73CFEB1
:1005F000EEE7FFF739FEF6E7D001002000220140C8
:100600000100000F70B588B0002303930493059395
:10061000069307930268224B9A4201D008B070BD3E
:1006200004460025019503F58B335A6C42F4806231
:100630005A645A6C02F480620192019A02951A6B14
:1006400042F020021A631B6B03F020030293029B0B
:100650004FF4806603960323049303A9114803F023
:1006600083FB1148114B03604FF08063436085604A
:10067000C56006614FF4006343614FF4005383612A
:10068000C5614FF480330362456203F0DFFC18B9A3
:10069000054BA3639C63C1E7FFF7E6FDF8E700BFE6
:1006A000002201400014024070010020106402404A
:1006B00008B50E480E4B036003234360002383609C
:1006C000C3604FF4102202614FF4001242610376BE
:1006D000437683760122C2760377437704F0A0F84D
:1006E00000B908BDFFF7C0FDFBE700BF44020020D2
:1006F0000064004008B50E480E4B036003234360BE
:1007000000238360C3604FF4102202614FF4001293
:1007100042610376437683760122C276037743777C
:1007200004F07EF800B908BDFFF79EFDFBE700BFAF
:100730001C0200200068004000B58BB00023059328
:1007400006930793089309930368364A934205D0AA
:10075000354A93422DD00BB05DF804FB334A136841
:1007600001331360012B17D000230193304B1A6B18
:1007700042F008021A631B6B03F008030193019B0C
:10078000032305930222069208930923099305A9DE
:10079000284803F0E9FADEE700230093244B1A6CA3
:1007A00042F000721A641B6C03F000730093009B0C
:1007B000DAE7002302931E4B1A6C42F080621A643F
:1007C0001B6C03F080630293029B184A1368013389
:1007D0001360012B18D000230493154B1A6B42F0C1
:1007E00002021A631B6B03F002030493049B602351
:1007F000059302230693032308930923099305A96C
:100800000D4803F0B1FAA6E700230393084B1A6CD6
:1008100042F000721A641B6C03F000730393039B95
:10082000D9E700BF006400400068004018020020C3
:1008300000380240000C02400004024008B50548A0
:10084000054B036004F092F800B908BDFFF70CFDFA
:10085000FBE700BF6C020020003002400268094B39
:100860009A4200D0704782B000230193064B1A6B66
:1008700042F480521A631B6B03F480530193019B73
:1008800002B07047003002400038024010B582B01C
:1008900000240094364B1A6B42F480021A631A6BE0
:1008A00002F480020092009A01941A6B42F4001242
:1008B0001A631B6B03F400130193019B224605216D
:1008C0000C2003F0C9FD0C2003F0D6FD22460521C3
:1008D0000D2003F0C1FD0D2003F0CEFD22460521C1
:1008E0000F2003F0B9FD0F2003F0C6FD22460521BD
:1008F0002F2003F0B1FD2F2003F0BEFD224605217D
:10090000382003F0A9FD382003F0B6FD224605216A
:10091000392003F0A1FD392003F0AEFD2246052168
:100920003A2003F099FD3A2003F0A6FD2246052166
:100930003B2003F091FD3B2003F09EFD2246052164
:10094000442003F089FD442003F096FD2246052152
:10095000452003F081FD452003F08EFD2246052150
:10096000462003F079FD462003F086FD02B010BD5D
:100970000038024008B50B480B4B03600B4B43603B
:1009800000238360C3604FF480420261436183614E
:10099000C361036203F0FAFF00B908BDFFF764FC0E
:1009A000FBE700BF34030020005C0040801A060013
:1009B0002DE9F04389B00023039304930593069334
:1009C000079302683D4B9A4202D009B0BDE8F0831C
:1009D0000446002500953A4E336B43F0040333631D
:1009E000336B03F004030093009B0195336B43F0DA
:1009F00001033363336B03F001030193019B4FF455
:100A0000007303934FF01209CDF810904FF00308D4
:100A1000CDF818800427079703A92A4803F0A4F902
:100A20004FF480730393CDF810900595CDF818809E
:100A3000079703A9244803F097F90295336C43F410
:100A400000033364336C03F400030293029B1F48DA
:100A50001F4B03604FF0C06343608560C5604FF477
:100A60008063036145618561C5614FF400330362B2
:100A7000456203F0EBFAD8B9144BA3639C631548A5
:100A8000154B03604FF0C063436040238360002335
:100A9000C3604FF48062026143618361C36103629A
:100AA000436203F0D3FA30B90A4B63639C638CE76B
:100AB000FFF7DAFBE0E7FFF7D7FBF5E7005C004064
:100AC000003802400008024000000240D40200202A
:100AD00040600240740200207060024008B5054882
:100AE000054B036004F030F800B908BDFFF7BCFB0C
:100AF000FBE700BF88030020000806500268094B8E
:100B00009A4200D0704782B000230193064B5A6B83
:100B100042F040025A635B6B03F040030193019B78
:100B200002B07047000806500038024008B5094876
:100B3000094B0360002343607F228260FF22C26072
:100B400003614361836104F069F800B908BDFFF7F0
:100B50008BFBFBE7980300200028004000B585B020
:100B60000023009301930293039302680B4B9A4274
:100B700002D005B05DF804FB022300934FF400732C
:100B80000393684603F046F820B9054B0122C3F8E9
:100B90003C2EEEE7FFF768FBF7E700BF00280040B8
:100BA0000000474208B50E480E4B03604FF48273B5
:100BB000436000238360C360036143614FF40072AC
:100BC00082611022C2610362436283620A23C362AC
:100BD00004F073F800B908BDFFF746FBFBE700BF60
:100BE00078040020003001402DE9F04188B0002356
:100BF0000393049305930693079302683B4B9A4231
:100C000002D008B0BDE8F08104460025009503F548
:100C100084335A6C42F480525A645A6C02F4805203
:100C20000092009A01951A6B42F002021A631A6B45
:100C300002F002020192019A02951A6B42F001023F
:100C40001A631B6B03F001030293029B18230393A7
:100C50004FF00208CDF81080032706970526079667
:100C600003A9234803F080F880230393CDF8108074
:100C700005950697079603A91E4803F075F81E48C8
:100C80001E4B03604FF0C06343608560C5604FF446
:100C90008063036145618561C5614FF44033036240
:100CA000456203F0D3F9D8B9134BE3649C6314484D
:100CB000144B03604FF0C063436040238360002304
:100CC000C3604FF48062026143618361C361036268
:100CD000436203F0BBF930B9094BA3649C6390E70E
:100CE000FFF7C2FAE0E7FFF7BFFAF5E7003001408F
:100CF000000402400000024018040020406402404A
:100D0000B80300205864024010B586B003683B4A1F
:100D1000934219D004463A4A934223D0394A934227
:100D20002DD0394A934255D0384A934218D10023E6
:100D30000593374B5A6C42F400325A645B6C03F4EF
:100D400000330593059B0BE000230193304B5A6C55
:100D500042F001025A645B6C03F001030193019BB2
:100D600006B010BD00230293294B1A6C42F0020218
:100D70001A641B6C03F002030293029BF0E700234A
:100D8000039302F50C32116C41F004011164126CF2
:100D900002F004020392039A1E481F4A02604FF0B9
:100DA000806242608360C3604FF4806202614FF4EE
:100DB000006242614FF400528261C3610362436288
:100DC00003F044F918B9134BE3629C63C8E7FFF7DB
:100DD0004BFAF8E7002204920D4B596C41F00201E6
:100DE00059645B6C03F002030493049B05212D20DE
:100DF00003F032FB2D2003F03FFBB1E70000014080
:100E0000000400400008004000040140004401408C
:100E100000380240D0040020B860024070B58CB0A9
:100E200000230793089309930A930B9303684F4A8F
:100E300093420DD04E4A934223D04E4A934237D02C
:100E40004D4A93424CD04D4A934275D00CB070BD80
:100E5000002301934A4B1A6B42F010021A631B6B7A
:100E600003F010030193019B4FF4D4430793022333
:100E700008930A9301230B9307A9424802F074FFD9
:100E8000E4E7002302933E4B1A6B42F004021A631C
:100E90001B6B03F004030293029B4FF480730793D0
:100EA000022308930B9307A9374802F05DFFCDE7B3
:100EB00000230393324B1A6B42F008021A631B6B38
:100EC00003F008030393039B4FF48043079302232B
:100ED00008930A930B9307A92C4802F045FFB5E746
:100EE00000250495264B1A6B42F480721A631A6B24
:100EF00002F480720492049A05951A6B42F004027F
:100F00001A631B6B03F004030593059BC02307932F
:100F1000022408940A9403260B9607A91C4802F0A1
:100F200023FF40230793089409950A940B9607A979
:100F3000154802F019FF89E700230693104B1A6B3E
:100F400042F020021A631B6B03F020030693069BFA
:100F5000402307930223089301230A9303230B934F
:100F600007A90C4802F000FF70E700BF0000014035
:100F7000000400400008004000040140004401401B
:100F8000003802400010024000080240000C0240FD
:100F9000002002400014024010B596B000241294C4
:100FA0001394149415941094119409940A940B9426
:100FB0000C940D940E940F942022214601A807F062
:100FC0000AFE3B483B4B0360446084604FF6FF736E
:100FD000C36004614461846104F0FAF800284BD1D5
:100FE0004FF48053129312A9314804F0FCF9002801
:100FF00045D12F4804F018F9002843D1002310935D
:10100000119310A92A4804F06DFA00283DD16023FD
:10101000099300220A920B920C920D920E920F925B
:1010200009A9234804F064F9002831D1042209A950
:101030001F4804F05DF970BB082209A91C4804F0A0
:1010400057F958BB0C2209A9194804F051F940BBC3
:101050000023019302930393049305934FF40052EA
:101060000692089301A9124804F082FAE0B91048E8
:10107000FFF7D4FE16B010BDFFF7F6F8B0E7FFF7A4
:10108000F3F8B6E7FFF7F0F8B8E7FFF7EDF8BEE7DB
:10109000FFF7EAF8CAE7FFF7E7F8CDE7FFF7E4F86C
:1010A000D0E7FFF7E1F8D3E7FFF7DEF8DFE700BFAF
:1010B000500600200000014000B58FB000230A93C5
:1010C0000B930C930D93089309930193029303934D
:1010D00004930593069307932048214A02604360D6
:1010E00083604FF6FF72C2600361836104F070F8A1
:1010F00028BB4FF480530A930AA9184804F073F9E7
:1011000000BB164804F090F8F8B90023089309933F
:1011100008A9124804F0E6F9D0B96023019300232E
:10112000029303930593082201A90C4804F0E0F808
:1011300088B90A48FFF772FE0FB05DF804FBFFF7AD
:1011400093F8D6E7FFF790F8DBE7FFF78DF8DCE7D9
:10115000FFF78AF8E1E7FFF787F8EAE708060020DB
:101160000004004000B58FB000230A930B930C934A
:101170000D930893099301930293039304930593AA
:10118000069307932048214A0260436083604FF62C
:10119000FF72C2600361836104F01AF828BB4FF448
:1011A00080530A930AA9184804F01DF900BB164899
:1011B00004F03AF8F8B900230893099308A91248F3
:1011C00004F090F9D0B960230193002302930393B4
:1011D0000593082201A90C4804F08AF888B90A4846
:1011E000FFF71CFE0FB05DF804FBFFF73DF8D6E7F4
:1011F000FFF73AF8DBE7FFF737F8DCE7FFF734F8FB
:10120000E1E7FFF731F8EAE7C005002000080040F9
:1012100010B596B00024129413941494159410945D
:10122000119409940A940B940C940D940E940F94B9
:101230002022214601A807F0CEFC3648364B036039
:10124000446084604FF6FF73C3600461446184614D
:1012500003F0BEFF002844D14FF48053129312A92B
:101260002C4804F0C0F800283ED12A4803F0DCFFE7
:1012700000283CD100231093119310A9254804F0B5
:1012800031F9002836D16023099300220A920B928B
:101290000C920D920E920F9209A91E4804F028F8A4
:1012A00058BB042209A91B4804F022F840BB0822BD
:1012B00009A9184804F01CF828BB002301930293E5
:1012C0000393049305934FF400520692089301A9E7
:1012D000104804F04DF9C8B90E48FFF79FFD16B04D
:1012E00010BDFEF7C1FFB7E7FEF7BEFFBDE7FEF793
:1012F000BBFFBFE7FEF7B8FFC5E7FEF7B5FFD0E7D6
:10130000FEF7B2FFD3E7FEF7AFFFD6E7FEF7ACFF7D
:10131000E2E700BF780500200004014000B589B075
:101320000023019302930393049305930693079379
:101330001548164A0260436083604FF6FF72C26030
:101340000361836103F044FFA0B90F4803F06CFF11
:1013500098B960230193002202920392059201A999
:10136000094803F0C5FF58B90748FFF757FD09B012
:101370005DF804FBFEF778FFE7E7FEF775FFE8E7A7
:10138000FEF772FFF0E700BF300500200044014087
:1013900008B50A480A4B03604FF4E1334360002369
:1013A0008360C36003610C2242618361C36104F006
:1013B000F1F900B908BDFEF757FFFBE70809002067
:1013C0000010014008B50A480A4B03600A4B43600D
:1013D00000238360C3600361042242618361C361AF
:1013E00004F0D8F900B908BDFEF73EFFFBE700BFE7
:1013F000C008002000480040A086010008B50A4847
:101400000A4B03604FF4E133436000238360C36001
:1014100003610C2242618361C36104F0BBF900B92E
:1014200008BDFEF721FFFBE778080020001401400B
:101430002DE9F0418CB004460023079308930993EB
:101440000A930B930368964A93420AD0954A9342B3
:1014500000F08280944A934200F0BD800CB0BDE859
:10146000F08100250095914B5A6C42F010025A64AD
:101470005A6C02F010020092009A01951A6B42F029
:1014800002021A631A6B02F002020192019A02959B
:101490001A6B42F001021A631B6B03F00103029303
:1014A000029B802307934FF00208CDF8208003278A
:1014B0000A9707260B9607A97D4802F055FC4FF4C2
:1014C00000730793CDF8208009950A970B9607A91A
:1014D000784802F049FC7848784B03604FF000638D
:1014E00043608560C5604FF4806303614561856139
:1014F000C5614FF400330362456202F0A7FD28BBCB
:101500006D4BE3639C636E486E4B03604FF000636A
:101510004360402383600023C3604FF48062026114
:1015200043618361C3614FF400320262436202F09F
:101530008DFD70B9624BA3639C63002205212520B9
:1015400002F08AFF252002F097FF87E7FEF78CFE66
:10155000D6E7FEF789FEEDE700250395534B1A6C9D
:1015600042F480221A641A6C02F480220392039AD5
:1015700004951A6B42F004021A631B6B03F0040318
:101580000493049B4FF440630793022308930323BF
:101590000A9307230B9307A94B4802F0E5FB4B483E
:1015A0004B4B03604FF0006343608560C5604FF4B0
:1015B0008063036145618561C5614FF44033036217
:1015C000456202F043FD18B9404BE3639C6345E775
:1015D000FEF74AFEF8E700250595344B5A6C42F0B9
:1015E00020025A645A6C02F020020592059A069570
:1015F0001A6B42F040021A631B6B03F04003069320
:10160000069B4FF4844307930223089303230A9312
:1016100008230B9307A92F4802F0A6FB2E482F4B57
:1016200003604FF0206343608560C5604FF48063C2
:10163000036145618561C5614FF400330362456212
:1016400002F004FD28BB244BE3639C632448254B34
:1016500003604FF020634360402383600023C36036
:101660004FF48062026143618361C3614FF40032D1
:101670000262436202F0EAFC70B9194BA3639C63F7
:1016800000220521472002F0E7FE472002F0F4FE89
:10169000E4E6FEF7E9FDD6E7FEF7E6FDEDE700BF7D
:1016A0000010014000480040001401400038024092
:1016B0000004024000000240180800208864024034
:1016C000B8070020B8640240000802405807002014
:1016D0002860024000180240F806002028640240FA
:1016E00098060020A064024008B502F083FAFEE7E5
:1016F000FEE7FEE7FEE7FEE7704708B5012002F0CF
:1017000031FC08BD08B5082002F02CFC08BD08B566
:10171000102002F027FC08BD08B5024802F05AFD6F
:1017200008BD00BF5807002008B5024802F052FD6E
:1017300008BD00BFD402002008B5024802F04AFDEF
:1017400008BD00BF7402002008B5202002F00AFC8A
:1017500008BD000008B5024804F0D8F808BD00BF75
:101760000809002008B5034803F017FC024803F0FD
:1017700014FC08BD780500205009002008B5024877
:1017800002F028FD08BD00BFD004002008B50248C3
:1017900002F020FD08BD00BF7001002008B502481E
:1017A00002F018FD08BD00BFF806002008B5024889
:1017B00002F010FD08BD00BF1804002008B5024863
:1017C00002F008FD08BD00BFB803002008B50248BC
:1017D00000F007FE08BD00BF9420002008B50248B5
:1017E00002F0F8FC08BD00BF1808002008B5024848
:1017F00002F0F0FC08BD00BF9806002008B50248C2
:1018000002F0E8FC08BD00BFB807002008B5024898
:1018100004F07CF808BD00BF7808002000B583B054
:10182000002200920D4B596C41F480415964596C6F
:1018300001F48041009100990192196C41F08051AE
:1018400019641B6C03F080530193019B0F216FF00F
:10185000010002F001FE03B05DF804FB0038024015
:1018600030B589B0044600230193214B1A6C42F431
:1018700080721A641B6C03F480730193019B02A9AC
:1018800003A802F097F9069BCBB902F073F903465F
:10189000184AA2FB03239B0C013B1748174A02601E
:1018A00040F2E732C26043600023036183608361DA
:1018B00003F08EFC054630B1284609B030BD02F079
:1018C00059F94300E4E70C4803F01EFB05460028E5
:1018D000F2D12D2002F0D0FD0F2C01D90125EBE72C
:1018E000002221462D2002F0B7FD054B1C60E3E7E6
:1018F0000038024083DE1B435009002000200040D6
:101900006800002008B500220F49104806F0F6F8DC
:1019100070B90F490D4806F008F960B90D490B4838
:1019200007F0EEF850B9094806F019F948B908BDB2
:10193000FEF79AFCEDE7FEF797FCEFE7FEF794FC65
:10194000F1E7FEF791FCF2E734000020980900204F
:10195000B80000205000002012230B800048704780
:101960002000002004230B80004870471C0000204A
:10197000002393421ED200B510E00CF1370C01F8A1
:1019800013C000014FEA430C0CF1010C4FF0000EA4
:1019900001F80CE00133DBB2934209D24FEA107C2C
:1019A000B0F1204FE9D20CF1300C01F813C0E8E798
:1019B0005DF804FB7047000038B50B4BD3F8100AF4
:1019C000D3F8144AD3F8183AC01800D138BD074DDF
:1019D00008222946FFF7CCFF042205F1100120461A
:1019E000FFF7C6FFF2E700BF0070FF1F02000020F4
:1019F00008B51A230B80FFF7DFFF014808BD00BFC1
:101A00000000002008B50A4628B90549054806F037
:101A1000F6FD034808BD0249024806F0F0FDF8E76C
:101A2000740C00208890000810B50A46034C21462B
:101A3000034806F0E4FD204610BD00BF740C0020F2
:101A4000A890000808B50A4628B90549054806F0D7
:101A5000D6FD034808BD0249024806F0D0FDF8E76C
:101A6000740C0020BC90000808B50A4628B9054946
:101A7000054806F0C4FD034808BD0249024806F0C7
:101A8000BEFDF8E7740C0020C890000800207047E5
:101A9000002070470020704710B50146044C2046D6
:101AA00007F047F8204607F050F8002010BD00BFAF
:101AB0009809002010B5064C00220649204607F080
:101AC0002AF80549204607F034F8002010BD00BF71
:101AD00098090020740E00207416002030B589B0DB
:101AE0000023039304930593069307930368B3F1CC
:101AF000A04F01D009B030BD00250195164C236BD5
:101B000043F001032363236B03F001030193019B63
:101B10004FF4C053039302230493032306930A2331
:101B2000079303A90D4802F01FF9636B43F080038C
:101B300063630295636C43F480436364636C03F4F2
:101B400080430293029B2A460521432002F084FC35
:101B5000432002F091FCCDE7003802400000024033
:101B600008B500F29C41D0F8E00406F00EF808BD7C
:101B700008B501EBC10300EB8303D3F86022D0F872
:101B8000E00406F0D4F808BD08B501EBC10300EB92
:101B900083031A6AD0F8E00406F02BF908BD08B5F3
:101BA000D0F8E00406F06EF808BD10B50446C1791F
:101BB00011B1022909D10121D4F8E00406F043F85B
:101BC000D4F8E00406F00DF810BDFEF74DFB01213E
:101BD000F2E7000010B50446D0F8E00406F036F84D
:101BE0002268D2F8003E43F00103C2F8003EE37AD7
:101BF00023B1034A136943F00603136110BD00BF0C
:101C000000ED00E008B5D0F8E00406F02EF808BDBD
:101C100008B5D0F8E00406F05DF808BD08B5D0F8C6
:101C2000E00406F040F808BD08B5D0F8E00406F07E
:101C300068F808BD08B5D0F8E00406F064F808BDFF
:101C400002780AB10020704710B503461548C0F865
:101C5000E034C3F8C8024FF0A043036004230371CB
:101C60000222C2710023837142728372C3720373B2
:101C70008373C37300F0EEF880B90A4C80212046CC
:101C800000F0B5FE40220021204600F08AFE8022AE
:101C90000121204600F085FE002010BDFEF7E4FA89
:101CA000EBE700BF94200020D0F8C83211F0800F7D
:101CB00008D101F07F0101EBC10103EB810393F82F
:101CC0005602704701F07F0101EBC10103EB810374
:101CD000987D704708B5D0F8C80200F0BDFA08BD7D
:101CE00000487047741E00207047032805D8DFE8BD
:101CF00000F005040205012070470320704708B575
:101D0000D0F8C80200F027F9FFF7EFFF08BD08B5CB
:101D100094461A466346D0F8C80200F0FCF9FFF773
:101D2000E4FF08BD08B5D0F8C80200F038FAFFF7A4
:101D3000DCFF08BD08B5D0F8C80200F0BBFAFFF719
:101D4000D4FF08BD08B5D0F8C80200F0F6FAFFF7D6
:101D5000CCFF08BD08B5D0F8C80200F0C9F9FFF7FC
:101D6000C4FF08BD08B5D0F8C80200F07EFAFFF73E
:101D7000BCFF08BD08B5D0F8C80200F048FAFFF76C
:101D8000B4FF08BD2DE9F04383B0D0F8008001EB2B
:101D9000C10300EB83039A6A5B6A9A4254D80746F0
:101DA0000C469B1A01EBC10200EB8202D2699A42F7
:101DB00000D31A4602F103094FEA990915E006F12A
:101DC00003094FEA9909BB7904EBC40507EB8505C4
:101DD000296A0093B3B2E2B2404601F040F92B6A9F
:101DE00033442B62AB6A3344AB6208EB441303F514
:101DF00010639B699BB24B4512D304EBC40307EB02
:101E000083039A6A5B6A9A420AD24BB19B1A04EB2B
:101E1000C40207EB8202D6699E42D0D31E46CEE7AB
:101E200004EBC40307EB83077A6ABB6A9A420FD8B4
:101E300004F00F040122A240D8F8343823EA020348
:101E4000C8F83438002000E0012003B0BDE8F0837A
:101E50000020FAE730B583B000287AD00446056840
:101E600090F89534C3B1032384F89534B5F1A04FAD
:101E700017D0206800F0A6FE237C8DF80030231DCB
:101E80000ECB206800F0DDFD70B1022384F895349C
:101E90000125284603B030BD80F89434FFF71EFEBC
:101EA000E1E70023A371E4E70021206801F0E7FAED
:101EB000024608B9034617E0022384F89534012549
:101EC000E7E703EBC30104EB8101012048750B75C3
:101ED000CB8500200876C861086203EBC30104EBE0
:101EE000810148620133DBB220799842E9D816E0DB
:101EF00002EBC20304EB8303002183F8551283F83D
:101F0000542283F85812C3F85C12C3F8601202EB33
:101F1000C20304EB8303C3F864120132D2B29042CD
:101F2000E6D8237C8DF80030231D0ECB206800F00E
:101F30009FFE054620B1022384F895340125A8E7C9
:101F400000236374012384F89534206801F056FA65
:101F50009FE701259DE7036890F89424012A1AD091
:101F600010B50446012280F89424DA6812F0400F7C
:101F700002D0427B012A09D0206800F01DFE2068B3
:101F800001F02EFA002084F8940410BD9A6B42F4FC
:101F900080329A63F0E702207047000070B5044673
:101FA0000D460068066C00EB411303F530639A6838
:101FB000A179012911D038498E4256D03DB905EB9F
:101FC000C50304EB8303D3F86432002B5ED0E9B27F
:101FD0002046FFF7CDFD002070BD12F0080F09D09C
:101FE0002E498E42F7D912F4004FF4D04FF400423C
:101FF0009A60F0E712F0200F02D020229A60EAE700
:1020000012F0280FE7D125498E4206D912F4004F6D
:1020100003D04FF400429A60DDE705EBC50204EB04
:102020008202D2F874121B69C3F31203CB1AC2F8EE
:1020300068327DB905EBC50204EB8202D2F8642256
:102040006AB105EBC50204EB8202D2F860121944B2
:10205000C2F86012E9B22046FFF78AFDBBE704F23E
:102060009C42012101F04AFAF4E712F4004F03D038
:102070004FF400429A60AEE712F0200F01D0202208
:102080009A60E9B22046FFF773FDA4E704F29C4290
:10209000002101F033FA9AE70A31544F0A30544FC5
:1020A00038B5044603681D6C03EB4113D3F8081BD5
:1020B0000E4A954207D903F5306311F4004F02D060
:1020C0004FF400429A602046FFF74AFD074B9D42BD
:1020D00002D9A379012B01D0002038BD04F29C4223
:1020E0000121206801F00AFAF6E700BF0A30544FD8
:1020F00090F89434012B0CD010B50446012380F8DD
:1021000094344174006801F05BF9002084F8940471
:1021100010BD0220704738B505468C4611F0800F7F
:1021200029D101F00F0E0EEBCE04A40004F51474B7
:102130000444211D0EEBCE0E00EB8E0E00208EF817
:1021400055020CF00F0C81F800C08A600B714A78C0
:102150000AB1A1F81AC0022B1CD095F89434012BB7
:102160001BD0012385F89434286800F05CFE002021
:1021700085F8940438BD01F00F0000EBC001890020
:1021800010312944043100EBC00005EB800001242C
:102190004475D6E700234B71DFE70220EAE710B56C
:1021A00004460A4611F0800F20D101F00F0000EB29
:1021B000C0039B0003F514732344191D00EBC000FA
:1021C00004EB8000002380F8553202F00F020A7001
:1021D00094F89434012B18D0012384F894342068A7
:1021E00000F06EFE002084F8940410BD01F00F0092
:1021F00000EBC0039B0010332344191D00EBC0000B
:1022000004EB800001234375DFE70220EDE710B502
:10221000144601F00F0C0CEBCC01890001F5147190
:10222000014404310CEBCC0E00EB8E0ECEF8602294
:10223000CEF864320023CEF868328EF855328EF82C
:1022400054C28279012A04D0006800F01FFF0020E8
:1022500010BDCEF87042F7E701F00F0101EBC101AC
:1022600000EB8100D0F86802704710B5144601F009
:102270000F0C0CEBCC0189001031014404310CEB44
:10228000CC0E00EB8E0ECEF82020CEF824300023AA
:10229000CEF8283001238EF815308EF814C08279DC
:1022A0009A4204D0006800F0F1FE002010BDCEF884
:1022B0003040F7E738B501F00F050279AA4238D36C
:1022C00004460B4611F0800F1FD101EBC1018900BC
:1022D00001F514710144043103EBC30300EB8303E4
:1022E000002283F8552201238B700D7094F89434EA
:1022F000012B20D0012384F89434206801F005F8E4
:1023000085B1002084F8940438BD05EBC50189002F
:1023100010310144043105EBC50300EB83030122B6
:102320005A75E0E704F29C42A179206801F0E6F8D2
:10233000E7E70120E8E70220E6E701F00F03027972
:102340009A4230D310B5044611F0800F1ED103EB32
:10235000C301890001F514710144043103EBC30288
:1023600000EB8202002082F8550200228A700B7076
:1023700094F89434012B18D0012384F89434206805
:1023800000F0F0FF002084F8940410BD03EBC301BB
:10239000890010310144043103EBC30200EB8202D7
:1023A00001205075E1E7012070470220EDE708B5F4
:1023B00011F0800F0CD101F00F0101EBC101890078
:1023C00001F5147101440431006800F0E9FD08BD15
:1023D00001F00F0101EBC10189001031014404310A
:1023E000F2E72DE9F04F83B004460568284601F076
:1023F00042F810B103B0BDE8F08F0646206801F046
:102400000BF80028F6D005F50067BB68C3F30D2371
:10241000C4F8D434206800F0FFFF10F0020F04D09D
:102420002268536903F002035361206800F0F4FF4F
:1024300010F0100F15D02268936923F010039361F8
:10244000D5F8208008F00F0908F4F013B3F5802FB9
:102450004CD0B3F5402F6FD02268936943F010033E
:102460009361206800F0D8FF10F4002F76D1206827
:1024700000F0D2FF10F4802F40F0E080206800F0E0
:10248000CBFF0028C0F26181206800F0C5FF10F486
:10249000006F09D0BB6813F0010F40F06E81226815
:1024A000536903F400635361206800F0B5FF10F432
:1024B000805F40F06681206800F0AEFF10F4005F9E
:1024C00040F0B381206800F0A7FF10F0080F40F043
:1024D000C481206800F0A0FF10F0800F00F0D781C9
:1024E000AB6923F08003AB610126C0E147F6F073CE
:1024F00018EA030FB0D04FEA181A4FEAC903019344
:1025000009EBC90B04EB8B0BC8F30A12DBF8601262
:10251000284600F0D7FEDBF86032CAF30A0A5344BB
:10252000CBF86032DBF86832019A4A4404EB82024D
:102530005344C2F868328FE7082204F29C412846CF
:1025400000F0C0FE09EBC90304EB8303D3F8682253
:10255000C8F30A184244C3F868227DE7206800F0F7
:102560005FFF8046B14635E005EB49130122C3F811
:10257000082B49462046FFF711FD3CE005EB4913C7
:102580000822C3F8082B49462046FFF789FD35E0AD
:1025900009EBC90304EB830393F85732012B41D0B5
:1025A00005EB49130222C3F8082B1AF0200F04D0C0
:1025B00005EB49132022C3F8082B1AF4005F05D05D
:1025C00005EB49134FF40052C3F8082B09F1010938
:1025D0004FEA5808B8F1000F3FF449AF18F0010F67
:1025E000F4D05FFA89FB5946206800F029FF824643
:1025F00010F0010FB8D11AF0080FBFD11AF0100F68
:1026000004D005EB49131022C3F8082B1AF0020F6F
:10261000CBD06B6913F0800FBAD07B6843F4806332
:102620007B60B5E709EBC90304EB8303002283F861
:10263000572259462046FFF7EBFAB1E7206800F031
:10264000F7FE8046B14625E059462046FFF79CFA42
:102650001AF0080F04D005EB49130822C3F8082923
:102660001AF0100F04D005EB49131022C3F8082903
:102670001AF0400F04D005EB49134022C3F8082993
:102680001AF0020F40D11AF0800F59D109F1010957
:102690004FEA5808B8F1000F3FF4F0AE18F0010F00
:1026A000F4D05FFA89FB5946206800F0D2FE8246DA
:1026B00010F0010FCCD009F00F02012101FA02F253
:1026C0007B6B23EA02037B6305EB4913C3F808190C
:1026D000A3798B42B8D109EBC90304EB83031A6ACF
:1026E000D9690A441A62B9F1000FADD109EBC903E7
:1026F00004EB83035B6A002BA6D104F29C42012108
:10270000206800F0FBFE9FE74946284600F060FA8B
:1027100009EBC90304EB8303DB7D012B05D005EB3B
:1027200049130222C3F80829ADE709EBC90304EBFA
:1027300083030022DA7559462046FFF76FFAEEE769
:1027400049462046FFF71EFBA0E77B6823F0010304
:102750007B6094F8CC34012B08D02046FFF752FA66
:102760002268536903F0004353618DE6002184F829
:10277000CC14204600F03FF9F2E72046FFF72AFA92
:102780008DE67B6823F001037B601021206800F058
:102790001FFA1AE005EB46134FF67F31C3F808190C
:1027A000D3F8002922F40012C3F80029C3F8081B4B
:1027B000D3F8002B22F40012C3F8002BD3F8002B1F
:1027C00042F00062C3F8002B01362379B342E1D80E
:1027D000FB6943F00113FB61E37BDBB1D7F8843085
:1027E00043F00B03C7F884307B6C43F00B037B642E
:1027F000D5F8003823F4FE63C5F8003804F29C4293
:10280000A179206800F07AFE2268536903F48053AE
:10281000536150E67B6943F4005343F02B037B6123
:102820003B6943F00B033B61E2E7206800F058FE90
:10283000206800F0E7FAE071266801F095F901469A
:10284000E279304600F046F92046FFF7AEF92268FB
:10285000536903F40053536134E62046FFF79FF9B0
:102860002268536903F00803536132E60136237985
:10287000B3420CD906EBC60304EB830393F857323B
:10288000012BF3D1F1B22046FFF791FDEEE720686E
:1028900000F0C2FD10F4801F25D1206800F0BCFDBF
:1028A00010F4001F59D0012326E001362379B342EA
:1028B0001BD905EB4613D3F8002906EBC60304EB3E
:1028C00083031B7E012BF0D1002AEEDA06EBC60350
:1028D00004EB83030122DA7566F07F01C9B220465A
:1028E000FFF765FDE1E70126E0E72268536903F49D
:1028F00080135361D1E7013322799A4228D905EB3D
:102900004312D2F8001B03EBC30204EB820292F8DD
:102910005822012AEFD10029EDDA01F48031D4F8F0
:10292000D42402F001029142E5D103EBC30204EB8F
:102930008202012182F85712AA6942F08002AA613C
:102940006A6912F0800FD6D17B6843F400737B6014
:102950002268536903F400135361206800F05CFDA2
:1029600010F0804F10D1206800F056FD10F0040FD9
:102970003FF440AD23685D6815F0040F0DD1226867
:1029800053682B43536035E52046FFF74DF9226825
:10299000536903F080435361E5E72046FFF74AF9A6
:1029A000EDE710B40468606A31B940EA0240A06201
:1029B00000205DF8044B70478C46A36A00EB13407F
:1029C000002308E003F1400104EB8101496800EBBA
:1029D00011400133DBB20CF1FF318B42F2D340EAFC
:1029E00002400CF13F0104EB81046060E0E7036802
:1029F000596200207047704782B000230193019B09
:102A000001330193019BB3F1706F15D80369002B5B
:102A1000F5DA00230193036943F001030361019B8D
:102A200001330193019BB3F1706F08D8036913F070
:102A3000010FF4D1002000E0032002B07047032012
:102A4000FBE784B010B5044603A880E80E009DF8AB
:102A50001130012B21D1A36B23F48033A363E368EE
:102A600023F4840323F04003E360E36823F440137A
:102A7000E3609DF81830012B0AD02046FFF7BCFF19
:102A80009DF80E30012B1CD0BDE8104004B07047FB
:102A9000E36843F48013E360EFE7E36843F0400347
:102AA000E3602046FFF7A8FF9DF8153023B9A36B1C
:102AB00043F48033A363E3E7A36B23F48033A3637E
:102AC000DEE7A36843F00603A360A36843F0200396
:102AD000A360D9E7022A0AD00922C36823F47053FD
:102AE000C360C36843EA8223C36000207047234B5E
:102AF0000B44234A93422FD9224B0B44224A934240
:102B00002CD9A1F57403A3F51053204A934227D979
:102B1000A1F18373A3F5E7431D4A934222D31D4BD2
:102B20000B441D4A93421FD91C4B0B441C4A934231
:102B30001CD31C4B0B441C4A934219D3A1F1B7730D
:102B4000A3F55853194A934214D3194B0B44194A0D
:102B5000934211D20722C0E70F22BEE70E22BCE744
:102B60000D22BAE70C22B8E70B22B6E70A22B4E737
:102B70000922B2E70822B0E70622AEE7405327FF5A
:102B8000FF340C00401E1BFF3F420F007F4F12001E
:102B900020D6130060B6E5FE5FE3160000D3CEFE3C
:102BA00040771B00C05BB3FEC09121002075380048
:102BB000E05459FEE09C4100836843F001038360C8
:102BC00000207047836823F0010383600020704772
:102BD00082B000230193019B01330193019BB3F168
:102BE000706F15D80369002BF5DA00230193890172
:102BF00041F020010161019B01330193019BB3F17D
:102C0000706F08D8036913F0200FF4D1002000E0A2
:102C1000032002B070470320FBE782B0002301933A
:102C2000019B01330193019BB3F1706F13D80369CA
:102C3000002BF5DA0023019310230361019B01337C
:102C40000193019BB3F1706F08D8036913F0100F63
:102C5000F4D1002000E0032002B070470320FBE71E
:102C6000D0F800381943C0F8001800207047000061
:102C700084B0F8B5044607A880E80E00002306E0FB
:102C800003F1400204EB82020021516001330E2B5C
:102C9000F6D99DF8266006BBD4F8043843F0020349
:102CA000C4F80438A36B43F40013A363A36B23F4A9
:102CB0000023A363A36B23F48023A3630023C4F83E
:102CC000003E9DF82130012B15D19DF81F306BB9C6
:102CD00000212046FFF7C4FF11E0A36B23F400138B
:102CE000A363A36B43F40023A363E7E7012120461A
:102CF000FFF7B6FF03E003212046FFF7B1FF1021E5
:102D00002046FFF765FF054600B101252046FFF785
:102D100084FF00B1012504F5006C0023CCF81030CD
:102D2000CCF81430CCF81C300AE0CBB94FF000607E
:102D3000C2F8000900220A614FF67F328A6001332F
:102D40009DF81C10994210D904EB431202F5106152
:102D5000D2F800090028E8DB0020C2F80009E9E702
:102D60004FF09040C2F80009E4E700230AE0BBB14D
:102D70004FF09047C2F8007B002202614FF67F328D
:102D800082600133994210D904EB431202F530609E
:102D9000D2F8007B002FEADB0027C2F8007BEBE7CC
:102DA0004FF00067C2F8007BE6E7DCF8103023F450
:102DB0008073CCF810300023A3616FF0804363610F
:102DC0009DF81E301BB9A36943F01003A361A269EB
:102DD0000B4B1343A3619DF822301BB1A36943F051
:102DE0000803A361012E04D02846BDE8F84004B0D2
:102DF0007047A36943F0804343F00403A361F3E702
:102E000000383C80D0F8083803F00603022B04D0C9
:102E1000062B04D02BB900207047022070470220F7
:102E200070470F20704710B591F800C04B78012B08
:102E300023D000F5006ED0F81C380CF00F040122EE
:102E4000A24043EA0243C0F81C3800EB4C10D0F813
:102E5000003B13F4004F0ED1D0F8003B8A68C2F358
:102E60000A02097942EA8142134343F0805343F452
:102E70000043C0F8003B002010BDD0F81C280CF027
:102E80000F0E03FA0EF39BB21343C0F81C3800EB8D
:102E90004C10D0F8003913F4004FECD1D0F80039C1
:102EA0008A68C2F30A02097942EA814242EA8C52F4
:102EB000134343F0805343F40043C0F80039DAE78A
:102EC00030B40B784A78012A26D000EB4313D3F8AC
:102ED000002B002A52DBD0F83C480A7802F00F029F
:102EE0004FF0010C0CFA02F224EA0242C0F83C282E
:102EF000D0F81C28097801F00F010CFA01FC22EA35
:102F00000C42C0F81C28D3F8001B234A0A40C3F81F
:102F1000002B002030BC704700EB4313D3F800298E
:102F2000002A1EDBD0F83C580A7802F00F02012478
:102F300004FA02F292B225EA0202C0F83C28D0F864
:102F40001C28097801F00F018C40A4B222EA040287
:102F5000C0F81C28D3F80019104A0A40C3F8002909
:102F6000D7E7D3F8002942F00062C3F80029D3F86C
:102F7000002942F08042C3F80029D3E7D3F8002BA0
:102F800042F00062C3F8002BD3F8002B42F08042DD
:102F9000C3F8002B9FE700BF0078F3EF007833EC15
:102FA00010B483B0024600230193487801280BD067
:102FB0000B7802EB4313D3F8000B00282DDB002025
:102FC00003B05DF8044B70470B7802EB4313D3F862
:102FD0000049002C01DB0020F2E7D3F8004944F05F
:102FE0000064C3F800490B7802EB4313D3F800499F
:102FF00044F08044C3F80049019B01330193019CD4
:1030000042F210739C42DBD80B7802EB4313D3F8E7
:103010000039002BF0DB0020D2E7D3F8000B40F0A2
:103020000060C3F8000B0B7802EB4313D3F8000BDE
:1030300040F08040C3F8000B019B013301930198DD
:1030400042F21073984208D80B7802EB4313D3F87E
:10305000003B002BF0DB0020B2E70120B0E710B509
:103060009DF8084084B903334FEA930E4FF0000CEB
:1030700008E000EB023303F5805351F8044B1C6069
:103080000CF1010CF445F4D3002010BDF0B583B071
:103090000C784B78012B2DD000EB441C0CF53063E1
:1030A0001D696FF312051D611D696FF3DC451D611C
:1030B000002C40F0C8800C690CB18C680C618C68E5
:1030C0000C621D69C4F312042C431C611C6944F496
:1030D00000241C61012A00F0D9800B79012B00F03B
:1030E000DB80DCF8003B43F00443CCF8003B0020DD
:1030F00003B0F0BD0B6973BB00EB4413D3F8105958
:103100006FF3DC45C3F81059D3F8105945F4002586
:10311000C3F81059D3F810596FF31205C3F81059BA
:10312000012A4ED000EB4414D4F8003943F0044394
:10313000C4F800390B79012B6CD00B69002BD6D069
:10314000D0F83438097801F00F0101228A40134386
:10315000C0F83438CBE700EB441303F510631D6966
:103160006FF312051D611D696FF3DC451D61DCB94C
:103170000E698D68AE4200D90D611D6945F40025C8
:103180001D611D690E69C6F3120C45EA0C051D612F
:103190000D79012DC4D11D6925F0C0451D611D6942
:1031A00045F000551D61BBE71E690D698F683D4400
:1031B000013DB5FBF7F5424F07EAC54535431D61B3
:1031C000DFE7CB691BB100EB4412C2F814390B796D
:1031D000012B08D000EB4414D4F8003943F0044329
:1031E000C4F8003983E7D0F8083813F4807F08D199
:1031F00000EB4412D2F8003943F00053C2F8003912
:10320000E8E700EB4412D2F8003943F08053C2F8EB
:103210000039DFE7D0F8083813F4807F0CD1D4F8F8
:10322000003943F00053C4F8003900920B8A0A7841
:10323000C968FFF714FF5AE7D4F8003943F0805308
:10324000C4F80039F1E70C6954B91C698D68C5F3FD
:1032500012052C431C611C6944F400241C6139E7ED
:103260008D682C44013CB4FBF5F4A4B204FB05F5D5
:103270000D621D69124E06EAC4442C431C611C6990
:103280000D6AC5F312052C431C6123E7CA68002AA6
:103290003FF423AF5A6120E7D0F8083813F4807F59
:1032A00006D1DCF8003B43F00053CCF8003B18E7B4
:1032B000DCF8003B43F08053CCF8003B11E700BF43
:1032C0000000F81F10B5844608464FEA920E02F03F
:1032D0000302002305E00CF58051096840F8041B47
:1032E00001337345F7D37AB10CF5805CDCF800400C
:1032F0000021CBB2DB0024FA03F300F8013B0131DB
:10330000013A92B2002AF4D110BD0B784A78012A12
:1033100014D000EB4310D0F8002B002A06DB2BB1B1
:10332000D0F8003B23F08043C0F8003BD0F8003BCE
:1033300043F40013C0F8003B0020704700EB43103B
:10334000D0F80029002A06DB2BB1D0F8003923F091
:103350008043C0F80039D0F8003943F40013C0F8B6
:103360000039E9E70B784A78012A0ED000EB4310C8
:10337000D0F8003B23F40013C0F8003B0B79023B6C
:10338000DBB2012B15D90020704700EB4310D0F8B9
:10339000003923F40013C0F800390B79023BDBB28B
:1033A000012BF0D8D0F8003943F08053C0F8003931
:1033B000E9E7D0F8003B43F08053C0F8003BE2E778
:1033C000D0F8003823F4FE63C0F80038D0F8003895
:1033D000090101F4FE610B43C0F80038002070477A
:1033E000D0F8003E23F00303C0F8003ED0F80438C4
:1033F00023F00203C0F8043800207047D0F8003EE4
:1034000023F00303C0F8003ED0F8043843F0020371
:10341000C0F8043800207047426980691040704746
:10342000D0F8183800F50060C0691840000C7047EB
:10343000D0F8183800F50060C069184080B27047B5
:1034400000EB4111D1F8082B00F5006040691040F5
:103450007047D0F81028D0F8343801F00F0C23FA58
:103460000CF3DB01DBB2134300EB411000F51060FD
:10347000806818407047406900F00100704738B517
:103480000546C36823F0C043C360012913D019BBAC
:10349000C36843F08043C36000240A2001F01CF895
:1034A0000A342846FFF7E7FF08B1C72CF5D9C82C26
:1034B00014D0002038BDC36843F00053C36000241B
:1034C0000A2001F009F80A342846FFF7D4FF012842
:1034D000EDD0C72CF4D9EAE70120EBE70120E9E7BA
:1034E000D0F800396FF30A03C0F80039D0F8043877
:1034F00043F48073C0F804380020704710B4046CA3
:10350000154B9C4203D9D0F8003B002B16DB00245E
:10351000C0F8104BD0F8104B44F40024C0F8104B06
:10352000D0F8104B44F01804C0F8104BD0F8104BF2
:1035300044F0C044C0F8104B012903D000205DF8CE
:10354000044B7047C0F8142BD0F8003B43F08023A5
:10355000C0F8003BF2E700BF0A30544F002800F0EB
:10356000E08170B582B00446036813F0010F3BD0D0
:103570009F4B9B6803F00C03042B2CD09C4B9B6847
:1035800003F00C03082B21D06368B3F5803F4FD0C4
:10359000B3F5A02F52D0964B1A6822F480321A60ED
:1035A0001A6822F480221A606368002B50D000F061
:1035B0008DFF05468E4B1B6813F4003F14D100F0BD
:1035C00085FF401B6428F5D90320B1E1884B5B6877
:1035D00013F4800FD8D0864B1B6813F4003F03D040
:1035E0006368002B00F09F81236813F0020F54D012
:1035F0007F4B9B6813F00C0F3ED07D4B9B6803F014
:103600000C03082B33D0E368002B68D0794B0122E0
:103610001A6000F05BFF0546754B1B6813F0020F44
:1036200054D100F053FF401B0228F5D903207FE15D
:103630006F4A136843F480331360B5E76C4B1A6824
:1036400042F480221A601A6842F480321A60ABE7B2
:1036500000F03CFF0546664B1B6813F4003FC3D0E7
:1036600000F034FF401B6428F5D9032060E1604B73
:103670005B6813F4800FC6D15D4B1B6813F0020F1B
:1036800003D0E368012B40F05081594A136823F0BE
:10369000F803216943EAC1031360236813F0080F9C
:1036A00042D063696BB3534B0122C3F8802E00F004
:1036B0000DFF05464E4B5B6F13F0020F34D100F047
:1036C00005FF401B0228F5D9032031E1484A136861
:1036D00023F0F803216943EAC1031360DDE7454B9A
:1036E00000221A6000F0F2FE0546414B1B6813F001
:1036F000020FD2D000F0EAFE401B0228F5D90320C9
:1037000016E13C4B0022C3F8802E00F0DFFE054698
:10371000374B5B6F13F0020F06D000F0D7FE401B53
:103720000228F5D9032003E1236813F0040F77D0B2
:103730002F4B1B6C13F0805F33D1002301932C4B74
:103740001A6C42F080521A641B6C03F08053019390
:10375000019B0125284B1B6813F4807F23D0A368AD
:10376000012B34D0052B38D0214B1A6F22F00102E7
:103770001A671A6F22F004021A67A368002B3DD063
:1037800000F0A4FE06461A4B1B6F13F0020F46D141
:1037900000F09CFE801B41F288339842F3D903204D
:1037A000C6E00025D6E7144A136843F4807313601B
:1037B00000F08CFE0646104B1B6813F4807FCED1C0
:1037C00000F084FE801B0228F5D90320B0E0084AEF
:1037D000136F43F001031367CFE7054B1A6F42F0F5
:1037E00004021A671A6F42F001021A67C5E700BFA8
:1037F00000380240000047420070004000F066FEC2
:103800000646524B1B6F13F0020F08D000F05EFE0D
:10381000801B41F288339842F3D9032088E0EDB948
:10382000A369002B00F08380484A926802F00C02E2
:10383000082A51D0022B17D0454B00221A6600F0FF
:1038400045FE0446414B1B6813F0007F42D000F058
:103850003DFE001B0228F5D9032069E03B4A136CAA
:1038600023F080531364DBE7394B00221A6600F023
:103870002DFE0546354B1B6813F0007F06D000F087
:1038800025FE401B0228F5D9032051E0E369226A96
:103890001343626A43EA8213A26A5208013A43EA76
:1038A0000243E26A43EA0263284A5360284B01223A
:1038B0001A6600F00BFE0446244B1B6813F0007FD1
:1038C00006D100F003FE001B0228F5D903202FE0EB
:1038D00000202DE000202BE0012B2BD01B4B5B6840
:1038E00003F48001E269914226D103F03F02216A8C
:1038F0008A4223D1616A47F6C0721A40B2EB811F37
:103900001ED103F44031A26A5208013AB1EB024FD2
:1039100018D103F07063E26AB3EB026F14D1002098
:1039200006E001207047012002E0012000E00020B5
:1039300002B070BD0120FBE70120F9E70120F7E7A5
:103940000120F5E70120F3E70120F1E7003802400C
:1039500000004742014B0122DA64704700004742F1
:1039600008B5264B9B6803F00C03042B41D0082BB1
:1039700041D1224B5A6802F03F025B6813F4800F7A
:1039800012D01E4B5968C1F388111D480023A1FBBA
:103990000001FCF7FDFB194B5B68C3F301430133E6
:1039A0005B00B0FBF3F008BD144B5868C0F38810FF
:1039B0004FEA401CBCEB000C6EEB0E0E4FEA8E1370
:1039C00043EA9C634FEA8C11B1EB0C0163EB0E03ED
:1039D000DB0043EA5173C90011EB000C43F1000313
:1039E000990200234FEA8C2041EA9C51FCF7D0FB5E
:1039F000D1E70348D7E70348D5E700BF00380240C6
:103A0000001BB7000024F400002800F09B8070B574
:103A10000D4604464F4B1B6803F007038B4208D248
:103A2000CBB24C4A1370136803F007038B4240F08B
:103A30008B80236813F0020F17D013F0040F04D00B
:103A4000454A936843F4E0539360236813F0080FEA
:103A500004D0414A936843F4604393603E4A9368BC
:103A600023F0F003A1680B439360236813F0010F68
:103A700032D06368012B21D09A1E012A25D9364AFB
:103A8000126812F0020F61D033498A6822F00302F3
:103A900013438B6000F01AFD06462F4B9B6803F022
:103AA0000C036268B3EB820F16D000F00FFD801B91
:103AB00041F288339842F0D9032042E0264A126846
:103AC00012F4003FE0D101203BE0234A126812F0DB
:103AD000007FD9D1012034E01E4B1B6803F007039F
:103AE000AB4207D9EAB21B4B1A701B6803F00703FD
:103AF000AB422DD1236813F0040F06D0164A936809
:103B000023F4E053E1680B439360236813F0080F3C
:103B100007D0114A936823F46043216943EAC10343
:103B20009360FFF71DFF0C4B9B68C3F303130B4A15
:103B3000D35CD8400A4B18600A4B1868FDF790FE1A
:103B4000002070BD012070470120FAE70120F8E74E
:103B50000120F6E7003C02400038024024910008B2
:103B60006C00002068000020014B1868704700BFFF
:103B70006C00002008B5FFF7F7FF044B9B68C3F308
:103B80008223034AD35CD84008BD00BF00380240FE
:103B90001C91000808B5FFF7E7FF044B9B68C3F3CF
:103BA0004233034AD35CD84008BD00BF003802400E
:103BB0001C9100080F2303600B4B9A6802F003026C
:103BC00042609A6802F0F00282609A6802F4E05261
:103BD000C2609B68DB0803F4E0530361034B1B687E
:103BE00003F007030B60704700380240003C0240BE
:103BF0007047000008B5064BDB6813F0800F00D15A
:103C000008BDFFF7F5FF024B80229A73F8E700BF6B
:103C10000038024030B583B00446036813F0050F46
:103C200006D1236813F0020F2ED1002003B030BD5F
:103C30004A4B00229A6600F049FC0546484B1B6837
:103C400013F0006F06D000F041FC431B022BF5D9A6
:103C50000320EBE76268A3681B0743EA8213404A2C
:103C6000C2F884303D4B01229A6600F02FFC0546D5
:103C70003B4B1B6813F0006FD3D100F027FC431BB4
:103C8000022BF5D90320D1E700230193344B1A6CA2
:103C900042F080521A641B6C03F080530193019B25
:103CA000304A136843F48073136000F00FFC05463C
:103CB0002C4B1B6813F4807F06D100F007FC431BDC
:103CC000022BF5D90320B1E7254B1B6F13F440738A
:103CD00014D0E26802F440729A420FD0204B1A6F5F
:103CE00022F440721D490120C1F8400E0020C1F8A5
:103CF000400E1A671B6F13F0010F13D1E36803F432
:103D00004072B2F5407F1ED0154A936823F4F81331
:103D1000936013490B6FE268C2F30B0213430B6706
:103D2000002083E700F0D2FB05460D4B1B6F13F01C
:103D3000020FE3D100F0CAFB401B41F288339842E6
:103D4000F3D9032072E706498A6822F4F81223F0B7
:103D5000704323F4407313438B60DAE7000047425B
:103D6000003802400070004000230F2B00F2E98071
:103D700070B582B065E085684FEA430E032404FA0B
:103D80000EF425EA0405CC6804FA0EF42C43846092
:103D9000446824EA02044A68C2F300129A402243AB
:103DA00042605CE0DC08083450F8242003F007058A
:103DB000AD004FF00F0E0EFA05FE22EA0E0E0A6954
:103DC000AA4042EA0E0240F824205CE0072200E00C
:103DD000002202FA0EF22A4302345A4D45F82420FA
:103DE000594A94686FEA0C0224EA0C054E6816F4EE
:103DF000801F01D04CEA0405534CA560E46802EA38
:103E000004054E6816F4001F01D04CEA04054E4C20
:103E1000E560646802EA04054E6816F4003F01D0CC
:103E20004CEA0405484C6560246822404D6815F44E
:103E3000803F01D04CEA0402434C226001330F2B37
:103E40007DD801229A400C6804EA020C32EA04048C
:103E5000F4D14C6804F00304013C012C8BD94A686E
:103E600002F00302032A09D0C4685D000322AA40BD
:103E700024EA02048A68AA402243C2604A6802F027
:103E80000302022A8ED004684FEA430E032202FA8C
:103E90000EF224EA02044A6802F0030202FA0EF269
:103EA000224302604A6812F4403FC7D000220192C8
:103EB000264A546C44F480445464526C02F48042A8
:103EC0000192019A9C08A51C1E4A52F8255003F045
:103ED000030E4FEA8E0E0F2202FA0EF225EA0205B9
:103EE0001B4A90423FF474AF02F5806290421AD0B0
:103EF00002F58062904218D002F58062904216D09E
:103F000002F58062904214D002F58062904212D095
:103F100002F58062904210D002F5806290423FF438
:103F200055AF082255E7012253E7022251E7032249
:103F30004FE704224DE705224BE7062249E702B08E
:103F400070BD704700380140003C0140003802401D
:103F5000000002400AB18161704709048161704725
:103F60007047000008B5054B5B69034200D108BDEE
:103F7000024B5861FFF7F4FFF9E700BF003C014036
:103F800010B40368D9B210390A4AA2FB01421209DF
:103F9000094CA25CC2655F2907D96FF3090304339A
:103FA0008365806D5DF8044B70476FF3090383658B
:103FB000F7E700BFABAAAAAA14910008836A826936
:103FC00092B9012B0AD0022B02D00BB1002070470E
:103FD000C36A13F0807F28D100207047C36AB3F111
:103FE000C07F24D000207047B2F5005F09D0022BBB
:103FF00025D9032B25D1C36A13F0807F23D100205C
:104000007047032B03D8DFE803F01404140A0020E0
:104010007047C36A13F0807F0DD100207047C36AD8
:10402000B3F1C07F09D00020704701207047012004
:104030007047012070470120704701207047012020
:1040400070470020704701207047000070B504469B
:1040500000F03CFA002C5BD00546022384F8353092
:10406000002384F834302268136823F001031360BE
:1040700023681A6812F0010F0AD000F027FA431BD8
:10408000052BF5D920236365032084F8350070BD26
:104090001A68204911406268A0680243E068024340
:1040A0002069024360690243A0690243E069024358
:1040B000206A02430A43616A04291ED01A602668F6
:1040C000756925F00705636A1D43042B07D1A36AB0
:1040D0001D43E36A1BB12046FFF770FF90B975617D
:1040E0002046FFF74DFFE26D3F23934083600020A1
:1040F0006065012384F83530C9E7E16A206B01432C
:104100000A43DBE740236365012084F83500BEE7FE
:104110000120BCE73F8010F070B50446866D00F0CA
:10412000D5F994F83530DBB2022B06D080236365D5
:10413000002384F83430012070BD054622681368DE
:1041400023F0160313602268536923F08003536140
:10415000236CE3B12268136823F00803136022681C
:10416000136823F00103136023681B6813F0010F29
:1041700011D000F0ABF9431B052BF5D92023636563
:10418000032084F83500002384F83430D4E7A36C8E
:10419000002BDFD1E3E7E26D3F239340B3600123BF
:1041A00084F83530002084F83400C5E790F83530C5
:1041B000DBB2022B03D08023436501207047052327
:1041C00080F835300268136823F001031360002083
:1041D00070470000F0B583B0044600230193724B92
:1041E0001D68724BA3FB0535AD0A876D3E68C26D35
:1041F00008239340334210D003681A6812F0040F6A
:104200000BD01A6822F004021A60C26D0823934092
:10421000BB60436D43F001034365E26D01239340AE
:10422000334209D02268526912F0800F04D0BB607B
:10423000636D43F002036365E26D042393403342F0
:1042400009D02268126812F0020F04D0BB60636DBF
:1042500043F004036365E26D10239340334224D09E
:104260002268126812F0080F1FD0BB6023681A681A
:1042700012F4802F0DD01B6813F4002F04D1236C8F
:104280009BB12046984710E0A36C73B12046984735
:104290000BE01A6812F4807F03D11A6822F008023A
:1042A0001A60236C0BB120469847E26D202393409F
:1042B000334255D02268126812F0100F50D0BB6004
:1042C00094F83530DBB2052B0ED023681A6812F44F
:1042D000802F33D01B6813F4002F2AD1636C002B7E
:1042E0003ED0204698473BE02268136823F016032F
:1042F00013602268536923F080035361236CA3B1D8
:104300002268136823F008031360E26D3F23934093
:10431000BB60012384F83530002384F83430236DEA
:10432000002B3FD0204698473CE0A36C002BE7D100
:10433000EBE7E36BA3B12046984711E01A6812F44B
:10434000807F09D11A6822F010021A60012384F8D4
:104350003530002384F83430E36B0BB120469847A6
:10436000636DFBB1636D13F0010F17D0052384F863
:1043700035302268136823F001031360019B013379
:104380000193AB4204D823681B6813F0010FF5D1E9
:10439000012384F83530002384F83430E36C0BB10A
:1043A0002046984703B0F0BD6C000020B5814E1B3D
:1043B000002807DB00F01F02400901239340024A56
:1043C00042F82030704700BF00E100E0002808DB21
:1043D0000901C9B200F1604000F5614080F80013A6
:1043E000704700F00F000901C9B2014B1954704722
:1043F00014ED00E000B500F00700C0F1070CBCF1BF
:10440000040F28BF4FF0040C031D062B0FD9C31E49
:104410004FF0FF3E0EFA0CF021EA000199400EFA2F
:1044200003FE22EA0E0241EA02005DF804FB0023CB
:10443000EEE70000074AD36823F4E0631B041B0C7B
:10444000000200F4E060034343F0BF6343F4003331
:10445000D360704700ED00E010B50446054BD86806
:10446000C0F30220FFF7C6FF01462046FFF7AEFF6C
:1044700010BD00BF00ED00E008B5FFF799FF08BDD3
:1044800008B50B4B1A6842F400721A601A6842F4BD
:1044900080621A601A6842F480721A600320FFF783
:1044A000C9FF0520FDF7DCF9FDF7B8F9002008BDCC
:1044B000003C0240034A1168034B1B780B44136015
:1044C000704700BF7825002064000020014B186869
:1044D000704700BF7825002038B50446FFF7F6FF87
:1044E0000546B4F1FF3F02D0044B1B781C44FFF794
:1044F000EDFF401BA042FAD338BD00BF640000208E
:104500004A4B5A6822F440325A605A6841680A435A
:104510005A600268536823F48073536002685368DA
:10452000016943EA012353600268536823F0407332
:1045300053600268536881680B4353600268936854
:1045400023F40063936002689368C1680B4393602F
:10455000826A374B9A4257D00268936823F070639F
:10456000936002689368816A0B4393600268936862
:1045700023F04053936002689368C16A0B439360D1
:104580000268936823F00203936002689368017ED7
:1045900043EA4103936090F82030002B3FD002683B
:1045A000536843F4006353600268536823F4604324
:1045B000536001684B68426A013A43EA42334B60F8
:1045C0000268D36A23F47003D3620168CB6AC269BC
:1045D000013A43EA0253CB620268936823F4007302
:1045E00093600268936890F8301043EA4123936027
:1045F0000268936823F4806393600268936841695A
:1046000043EA8123936070470268936823F07063E4
:1046100093600268936823F040539360B0E70268A8
:10462000536823F400635360CAE700BF00230140CE
:104630000100000F38B310B50446036C43B1236C7E
:1046400013F0100F0BD00120002384F83C3010BD74
:10465000FBF7D8FF0023636484F83C30EFE7236C5A
:1046600023F4885323F0020343F00203236420461B
:10467000FFF746FF00206064236C23F0030343F040
:1046800001032364E0E701207047000030B482B0EA
:104690000022019290F83C20012A00F0B6800346E7
:1046A000012280F83C200A68092A40D90468E068A1
:1046B00092B202EB42021E3A4FF0070C0CFA02F2E1
:1046C00020EA0202E2601C68E0680A8802EB42020B
:1046D0001E3A8D6805FA02F20243E2604A68062A31
:1046E0003CD81C68606B02EB8202053A4FF01F0C4D
:1046F0000CFA02F220EA020262631C68606B4A68EC
:1047000002EB8202053AB1F800C00CFA02F2024351
:10471000626318683E4A904250D018683C4A904202
:1047200055D0002083F83C0002B030BC70470468CC
:10473000206992B202EB42024FF0070C0CFA02F22F
:1047400020EA020222611C6820690A8802EB420208
:104750008D6805FA02F202432261BFE70C2A16D8DF
:104760001D68286B02EB8202233A1F2404FA02F22E
:1047700020EA02022A631D68286B4A6802EB820263
:10478000233A0C8804FA02F202432A63C1E71D6847
:10479000E86A02EB8202413A1F2404FA02F220EA9C
:1047A0000202EA621D68E86A4A6802EB8202413A44
:1047B0000C8804FA02F20243EA62AAE70A68122AA3
:1047C000ABD11448426842F480024260A5E70A680F
:1047D000103A012AA5D80F48426842F4000242600C
:1047E0000A68102A9DD10C4A12680C49A1FB0212DA
:1047F000920C02EB82025200019202E0019A013A0D
:104800000192019A002AF9D18BE702208CE700BFC0
:1048100000200140002301406C00002083DE1B4388
:10482000002800F0A18038B5044690F82030D3B1BC
:104830002268136843F001031360FFF747FE054643
:1048400023685A6812F0010F10D1FFF73FFE401B9A
:104850000A28F5D9636A43F400336362052384F8B8
:104860002030012038BDFBF767FFE1E71A6822F02E
:1048700002021A60FFF72AFE054623685A6812F002
:10488000020F0DD0FFF722FE401B0A28F5D9636AFC
:1048900043F400336362052384F820300120E1E70C
:1048A000227E012A3DD01A6822F080021A60637EBF
:1048B000012B3BD02268136823F040031360A37ED2
:1048C000012B39D02268136823F020031360E37EA4
:1048D000012B37D02268136843F010031360237F45
:1048E000012B35D02268136823F008031360637F1F
:1048F000012B33D02268136823F004031360A368EC
:10490000E268134322691343626913436268013A00
:1049100021681343CB6100206062012384F82030BA
:10492000A0E71A6842F080021A60C0E722681368A4
:1049300043F040031360C2E72268136843F020038A
:104940001360C4E72268136823F010031360C6E7FE
:104950002268136843F008031360C8E722681368ED
:1049600043F004031360CAE70120704758B110B543
:10497000044643791BB101236371002010BD03710C
:10498000FBF76CFFF7E7012070470000002800F0FC
:10499000CC8070B5044690F83D30002B77D02423AE
:1049A00084F83D302268136823F001031360226805
:1049B000136843F4004313602268136823F4004330
:1049C0001360FFF7D7F862685A4B9A4264D85A4B83
:1049D00098428CBF00230123002B40F0A880574948
:1049E000A1FB00318B0C25686A6822F03F0242EA85
:1049F00091426A6021680A6A22F03F0266684D4D62
:104A0000AE424FD8013313430B622168CA6922F4C6
:104A10004F4222F0FF026568464B9D424CD8431E30
:104A20006D00B3FBF5F3013340F6FC70034278D020
:104A3000C3F30B031A43CA6121680B6823F0C00358
:104A4000E269206A024313430B6021688B6823F4F8
:104A5000034323F0FF032269E068024313438B60A2
:104A60002168CB6823F0FF036269A0690243134306
:104A7000CB602268136843F00103136000202064B8
:104A8000202384F83D30206384F83E0070BD80F818
:104A90003C30FBF78DFF82E7294B98428CBF002307
:104AA000012399E74FF4967505FB03F3254DA5FB0C
:104AB00003539B090133A6E7A668BEB9431E05EB65
:104AC000450CB3FBFCF30133C3F30B03B3FA83F3DD
:104AD0005B0943BBC6B9431E05EB4505B3FBF5F3C4
:104AE0000133C3F30B0343F40043A3E7431E05EB79
:104AF000850C0CEB8C0CB3FBFCF30133C3F30B0301
:104B0000B3FA83F35B09E4E7431E05EB850505EB88
:104B10008505B3FBF5F30133C3F30B0343F44043C3
:104B200088E7042386E7012384E7012070470120FA
:104B3000ACE700BFA08601007F841E0083DE1B431C
:104B4000FF083D00D34D621098B110B5044643797B
:104B50005BB1022363712268136843F0040313609E
:104B6000012363710020A06010BD0371FBF7C6FF35
:104B7000EFE701207047000038B5044603680A4A91
:104B8000DA60FFF7A3FC05462368DB6813F0200F0B
:104B900007D1FFF79BFC401BB0F57A7FF4D90320C7
:104BA00000E0002038BD00BF5F7F010070B50368E2
:104BB000DA6812F0400F02D00025284670BD044686
:104BC000DA6842F08002DA60FFF780FC06460025D2
:104BD0002368DB6813F0400FEFD1002DEDD1FFF714
:104BE00075FC831BB3F57A7FF2D904236377012523
:104BF000EEE70268D36823F08003D36003689B6804
:104C000013F0200F01D00020704710B50446FFF7C5
:104C1000B3FF10B104236377012010BD00284AD0F0
:104C200010B50446437F53B1022363772368DA68E3
:104C300012F0100F07D000200123637710BD037717
:104C4000FBF78CFFF0E7CA225A62236853225A62AC
:104C50002046FFF7ABFF28B12368FF225A620028E5
:104C6000ECD1E9E72268936823F4E00323F04003E2
:104C7000936021688A68636820690343606903431D
:104C800013438B602368E2681A6122681369A16884
:104C900043EA014313612046FFF7ABFF0028DBD155
:104CA0002268136C23F4802313642268136CA169B7
:104CB0000B431364D0E70120704700285AD010B589
:104CC0000446436A33B94368B3F5827F05D00023B5
:104CD000C36102E00023036143610023A36294F8EF
:104CE0005130002B40D0022384F8513022681368E1
:104CF00023F040031360636803F48273A26802F434
:104D000004421343E26802F400621343226902F092
:104D100002021343626902F001021343A26902F422
:104D200000721343E26902F038021343226A02F070
:104D300080021343A26A02F40052216813430B60FD
:104D4000638B03F00403626A02F0100221681343CC
:104D50004B602268D36923F40063D361002060654F
:104D6000012384F8513010BD84F850302046FBF701
:104D70003BFFB8E70120704730B4036A026A22F0B3
:104D8000010202624268846924F0730C0C6844EAF0
:104D90000C0423F0020C8B6843EA0C03114DA8426B
:104DA00003D005F58065A84205D123F00803CD683E
:104DB0002B4323F004030B4DA84203D005F5806577
:104DC000A84207D122F440724D6945EA020C8A6973
:104DD00042EA0C02426084614A684263036230BC6A
:104DE000704700BF0000014030B4036A026A22F439
:104DF000807202624268C46924F0730C0C6844EA51
:104E00000C0523F400738C6843EA0423114CA04280
:104E100003D004F58064A04206D123F40063CC687B
:104E200043EA042323F480630A4CA04203D004F530
:104E30008064A04207D122F440524C6942EA041235
:104E40008C6942EA04124260C5614A68C263036227
:104E500030BC70470000014030B4036A026A22F49B
:104E6000805202624468C26922F4E6420D6842EA56
:104E7000052223F400538D6843EA0533094DA84207
:104E800003D005F58065A84204D124F480444D691F
:104E900044EA85144460C2614A680264036230BC1B
:104EA000704700BF0000014010B4036A046A24F098
:104EB00001040462846924F0F00C4CEA021223F02D
:104EC0000A030B43826103625DF8044B704710B420
:104ED000036A046A24F010040462846924F4704CA8
:104EE0004CEA023223F0A00343EA01138261036219
:104EF0005DF8044B7047836823F070030B4343F065
:104F0000070383607047000090F83D30DBB2012B4F
:104F100037D1022380F83D300268D36843F00103A3
:104F2000D3600368194A934220D0B3F1804F1DD05B
:104F3000A2F57C42934219D002F58062934215D0CB
:104F400002F58062934211D002F5784293420DD06F
:104F500002F57052934209D0A2F59432934205D0E3
:104F60001A6842F001021A60002070479A6802F045
:104F70000702062A07D01A6842F001021A600020D0
:104F80007047012070470020704700BF00000140BB
:104F90007047704770477047704770B504460368A4
:104FA000DE681D6915F0020F10D016F0020F0DD04B
:104FB0006FF002021A610123037703689B6913F003
:104FC000030F5ED0FFF7E6FF0023237715F0040FF1
:104FD00012D016F0040F0FD023686FF004021A618C
:104FE0000223237723689B6913F4407F4FD0204628
:104FF000FFF7D0FF0023237715F0080F12D016F02B
:10500000080F0FD023686FF008021A61042323777A
:105010002368DB6913F0030F40D02046FFF7BAFF87
:105020000023237715F0100F12D016F0100F0FD0B9
:1050300023686FF010021A61082323772368DB6965
:1050400013F4407F31D02046FFF7A4FF00232377DD
:1050500015F0010F02D016F0010F2DD115F0800FC1
:1050600002D016F0800F2FD115F0400F02D016F0AD
:10507000400F31D115F0200F02D016F0200F33D1A0
:1050800070BDFFF786FF2046FFF785FF9CE72046AF
:10509000FFF77FFF2046FFF77EFFABE72046FFF7D5
:1050A00078FF2046FFF777FFBAE72046FFF771FF4A
:1050B0002046FFF770FFC9E723686FF001021A610D
:1050C0002046FBF7C5F8C9E723686FF080021A6134
:1050D000204600F077FAC7E723686FF040021A61B4
:1050E0002046FFF759FFC5E723686FF020021A61D9
:1050F000204600F066FAC3E70368344A904212D0B3
:10510000B0F1804F0FD0A2F57C4290420BD002F557
:105110008062904207D002F58062904203D002F58F
:105120007842904203D123F070034A681343274A20
:1051300090422AD0B0F1804F27D0A2F57C42904215
:1051400023D002F5806290421FD002F58062904227
:105150001BD002F57842904217D002F5705290426F
:1051600013D002F5806290420FD002F58062904227
:105170000BD0A2F59832904207D002F5806290429F
:1051800003D002F58062904203D123F44073CA68D1
:10519000134323F080034A69134303608B68C3629F
:1051A0000B688362094B984203D003F580639842F1
:1051B00001D10B69036301234361036913F0010FFC
:1051C00003D0036923F0010303617047000001402D
:1051D00040B310B5044690F83D30F3B1022384F893
:1051E0003D30214651F8040BFFF786FF012384F878
:1051F000463084F83E3084F83F3084F8403084F8FC
:10520000413084F8423084F8433084F8443084F8E4
:10521000453084F83D30002010BD80F83C30FBF76D
:1052200073FDDBE70120704740B310B5044690F8EA
:105230003D30F3B1022384F83D30214651F8040B90
:10524000FFF75AFF012384F8463084F83E3084F893
:105250003F3084F8403084F8413084F8423084F89C
:10526000433084F8443084F8453084F83D300020E1
:1052700010BD80F83C30FFF78BFEDBE70120704764
:1052800030B4036A026A22F0100202624468826942
:1052900022F4E6420D6842EA052223F020038D68DD
:1052A00043EA0513114DA84203D005F58065A842D5
:1052B00006D123F08003CD6843EA051323F04003B1
:1052C0000A4DA84203D005F58065A84207D124F411
:1052D00040644D6944EA85048D6944EA850444606C
:1052E00082614A688263036230BC704700000140FB
:1052F00038B590F83C30012B66D004460D460123AA
:1053000080F83C300C2A5AD8DFE802F00759595986
:105310001B5959593059595944000068FFF72CFD61
:105320002268936943F0080393612268936923F02C
:10533000040393612268936929690B4393610020F8
:105340003EE00068FFF79CFF2268936943F4006326
:1053500093612268936923F480639361226893695F
:10536000296943EA01239361002029E00068FFF7DF
:105370003BFD2268D36943F00803D3612268D369F7
:1053800023F00403D3612268D36929690B43D361F5
:10539000002015E00068FFF75FFD2268D36943F441
:1053A0000063D3612268D36923F48063D3612268E8
:1053B000D369296943EA0123D361002000E0012079
:1053C000002384F83C3038BD0220FCE710B4846828
:1053D00024F47F4C42EA03220A4342EA0C02826030
:1053E0005DF8044B704790F83C30012B78D010B535
:1053F0000446012380F83C30022380F83D300268E7
:10540000936823F47F4323F0770393600B68602B4A
:105410004CD023D8402B54D011D8202B03D00AD8FD
:105420000BB1102B05D119462068FFF764FD002051
:1054300028E0012026E0302BF5D0012022E0502B7F
:105440000AD1CA6849680068FFF72EFD502120681C
:10545000FFF751FD002015E0012013E0B3F5805F58
:105460003AD0B3F5005F14D0702B37D1CB684A68BF
:1054700089680068FFF7AAFF2268936843F0770302
:1054800093600020012384F83D30002384F83C30F1
:1054900010BDCB684A6889680068FFF797FF2268EB
:1054A000936843F4804393600020EBE7CA6849683F
:1054B0000068FFF70CFD60212068FFF71CFD00204D
:1054C000E0E7CA6849680068FFF7EEFC4021206801
:1054D000FFF711FD0020D5E70020D3E70120D1E739
:1054E0000220704790F83C20012A3DD010B40346BA
:1054F000012280F83C20022280F83D20026850689A
:10550000946820F0700C086840EA0C0050601A683B
:10551000164882421AD0B2F1804F17D0A0F57C40D5
:10552000824213D000F5806082420FD000F5806087
:1055300082420BD000F57840824207D000F57050CF
:10554000824203D0A0F59430824204D124F080043A
:10555000496821439160012283F83D20002083F8AF
:105560003C005DF8044B704702207047000001408A
:10557000024690F83C30012B21D0012380F83C30CA
:10558000CB6823F440738868034323F4806348683E
:10559000034323F400630868034323F4805308693A
:1055A000034323F400534869034323F48043C96948
:1055B0000B4311684B64002082F83C0070470220C6
:1055C000704770477047026802F10C0353E8003FD0
:1055D00023F490730C3242E800310029F3D10268C1
:1055E00002F1140353E8003F23F00103143242E8B0
:1055F00000310029F3D1036B012B05D0202380F863
:105600004230002303637047026802F10C0353E841
:10561000003F23F010030C3242E800310029F3D19F
:10562000ECE790F84130DBB2212B01D0022070472B
:105630008368B3F5805F17D0036A5A1C02621A7838
:1056400003685A60C38C9BB2013B9BB2C3844BB9C5
:105650000268D36823F08003D3600268D36843F004
:105660004003D360002070470369002BE4D1036A34
:105670001B880268C3F308035360036A02330362A2
:10568000E0E7000010B504460268136923F44053B4
:10569000C1680B431361836802691A4343691A4363
:1056A000C3691A430168CB6823F4164323F00C0343
:1056B0001343CB600268536923F4407381690B4341
:1056C00053610368314A934206D002F580629342E7
:1056D00002D0FEF74FFA01E0FEF75CFAE369B3F59A
:1056E000004F29D00021031849411B1841F1000146
:1056F000C90041EA5371DB00181863684FEA83025E
:105700004FEA937341F10001FAF742FD204AA2FBF0
:1057100000314909642303FB11031B013233A2FB4F
:1057200003235B0903F0F00202EB011203F00F0305
:10573000216813448B6010BD0023021843EB030162
:10574000121841F10001C90041EA5271D20010184B
:1057500041F10001626892185B41FAF719FD0C4AA9
:10576000A2FB00314909642303FB1103DB00323340
:10577000A2FB03235B095A0002F4F87202EB011248
:1057800003F00703216813448B60D4E70010014045
:105790001F85EB5160B310B5044690F8413013B348
:1057A000242384F841302268D36823F40053D36063
:1057B0002046FFF767FF2268136923F490431361C3
:1057C0002268536923F02A0353612268D36843F4A3
:1057D0000053D36000206064202384F8413084F8B3
:1057E0004230606310BD80F84030FBF721FED7E700
:1057F00001207047704708B50168CA6822F040026E
:10580000CA60202280F84120FFF7F4FF002008BD85
:105810007047704708B5806B0023C385C384FFF7CA
:10582000F8FF08BD704790F84230DBB2222B69D1F7
:105830008368B3F5805F4FD0826AB3F5805F04D090
:10584000002B56D10369002B53D103685B6813709A
:10585000836A01338362C38D9BB2013B9BB2C385D4
:10586000002B51D100B583B00268D36823F0200328
:10587000D3600268D36823F48073D36002685369ED
:1058800023F001035361202380F842300023436357
:10589000036B012B33D100230363026802F10C0375
:1058A00053E8003F23F010030C3242E80031002996
:1058B000F3D103681A6812F0100F06D0002201928B
:1058C0001A6801925B680193019B818DFFF7AAFF23
:1058D000002003B05DF804FB0269002AACD1826AA3
:1058E00003685B68C3F308031380836A023383622F
:1058F000B1E703685B6803F07F031370A8E7FFF765
:1059000087FFE5E7022070470020704710B582B09E
:10591000044602681368D068516913F00F0F09D16B
:1059200013F0200F0CD010F0200F09D02046FFF705
:105930007AFF16E011F0010115D110F4907F12D119
:10594000216B012979D013F0800F03D010F0800F64
:1059500040F0148113F0400F03D010F0400F40F0DE
:10596000118102B010BD13F0010F06D010F4807F3A
:1059700003D0626C42F00102626413F0040F04D0A1
:1059800019B1626C42F00202626413F0020F04D09B
:1059900019B1626C42F00402626413F0080F07D080
:1059A00010F0200F00D119B1626C42F0080262645D
:1059B000626C002AD5D013F0200F02D010F0200F17
:1059C00029D123685B6903F04003626C12F0080F71
:1059D00000D163B32046FFF7F6FD23685B6913F03F
:1059E000400F20D0226802F1140353E8003F23F057
:1059F0004003143242E800310029F3D1E36B73B164
:105A0000624A1A65E06BFEF7D1FB0028A9D0E06B73
:105A1000036D9847A5E72046FFF705FFD1E720462D
:105A2000FFF7F7FE9DE72046FFF7F3FE99E72046D4
:105A3000FFF7EFFE0023636493E713F0100F82D0AB
:105A400010F0100F3FF47FAF002301931368019310
:105A500053680193019B536913F0400F52D0E26BDE
:105A600013685B689BB2002B3FF47BAFA18D99421A
:105A70007FF677AFE385D369B3F5807F37D02268AF
:105A800002F10C0353E8003F23F480730C3242E828
:105A900000310029F3D1226802F1140353E8003FDA
:105AA00023F00103143242E800310029F3D12268C7
:105AB00002F1140353E8003F23F04003143242E89C
:105AC00000310029F3D1202384F8423000232363DE
:105AD000226802F10C0353E8003F23F010030C325C
